:10000000000003200D08000045120000451200000A
:100010004512000045120000451200004512000084
:100020004512000045120000451200004512000074
:100030004512000045120000451200004512000064
:100040004512000045120000451200004512000054
:100050004512000045120000451200004512000044
:100060004512000045120000451200004512000034
:100070004512000045120000451200004512000024
:100080004512000045120000451200004512000014
:100090004512000045120000451200004512000004
:1000A00045120000451200004512000045120000F4
:1000B00045120000451200004512000045120000E4
:1000C00045120000451200004512000045120000D4
:1000D00045120000451200004512000045120000C4
:1000E00045120000451200004512000045120000B4
:1000F00045120000451200004512000045120000A4
:100100004512000045120000451200004512000093
:100110004512000045120000451200004512000083
:100120004512000045120000F91D000045120000B4
:100130004512000045120000451200004512000063
:100140004512000045120000451200004512000053
:100150004512000045120000451200004512000043
:100160004512000045120000451200004512000033
:100170004512000045120000451200004512000023
:100180004512000045120000451200004512000013
:080190004512000045120000B9
:1004100008B50448044B1B1A062B02D9034B03B141
:10042000984708BD000000200300002000000000E5
:1004300006480749091A08B58910022391FBF3F110
:1004400011B1044B03B1984708BD00BF0000002064
:100450000000002000000000074B1A7810B51C4671
:1004600042B9FFF7D5FF054B13B10548AFF3008044
:100470000123237010BD00BF000000200000000019
:10048000DC21000008B5084B1BB108480849AFF350
:1004900000800848036813B1074B03B19847BDE8D3
:1004A0000840FFF7C5BF00BF00000000DC210000CE
:1004B00004000020000000200000000080B500AF14
:1004C00040F25403C2F200031B68184600F03AFFE2
:1004D00040F24D1001F0B6FD40F25403C2F20003A9
:1004E0005B68184600F0B2FF40F24D1001F0AAFD23
:1004F00040F25403C2F200039B68184601F02AF848
:1005000040F24D1001F09EFD40F25403C2F2000390
:100510001B68184600F006FF40F25403C2F20003C5
:100520005B68184600F082FF40F25403C2F20003F9
:100530009B68184600F0FEFF80BD00BF80B500AF8D
:1005400000F032FAFEE700BF80B483B000AF7860FD
:1005500039600C37BD465DF8047B704780B48BB0C2
:1005600000AFF860B9607A607B687B6204233B620D
:100570000323FB610223BB6101237B6101233B61F8
:10058000FA68BB689A4202D07B68002B00D151E028
:100590004DE0FA69BB681340002B19D1FA69FB687A
:1005A0001340002B14D13A6A7B6A9A4210D8FB6838
:1005B000BA6812681A603B6AFA681344FB603B6AC7
:1005C000BA681344BB603B6A7A6AD31A7B622EE036
:1005D0007A69BB681340002B19D17A69FB68134014
:1005E000002B14D1BA697B6A9A4210D8FB68BA68AA
:1005F00012881A80BB69FA681344FB60BB69BA6849
:100600001344BB60BB697A6AD31A7B620FE0FB6854
:10061000BA6812781A703B69FA681344FB603B6948
:10062000BA681344BB603B697A6AD31A7B627B6AFF
:10063000002BAED12C37BD465DF8047B704700BF60
:1006400090B583B000AF42F2FC13C0F20003002B60
:1006500000D16DE000237B6042E042F2FC12C0F268
:10066000000279680B465B000B449B0013445868FA
:1006700042F2FC12C0F2000279680B465B000B44A8
:100680009B0013441C6842F2FC12C0F2000279681D
:100690000B465B000B449B00134408331B68214648
:1006A0001A46FFF75BFF42F2FC12C0F200027968C3
:1006B0000B465B000B449B001344586842F2FC124B
:1006C000C0F2000279680B465B000B449B001344A8
:1006D00008331B681946FFF737FF7B6801337B60DF
:1006E00042F2FC12C0F2000279680B465B000B4438
:1006F0009B0013441B68002BAFD142F2FC12C0F2E6
:10070000000279680B465B000B449B0013445B6856
:10071000002BA2D142F2FC12C0F2000279680B4613
:100720005B000B449B00134408331B68002B94D1DF
:100730000C37BD4690BD00BF80B489B000AF40F219
:100740008402C2F2000240F20003C2F20003D31A94
:10075000FB6140F20003C2F20003BB6104237B6132
:1007600003233B610223FB600123BB6001237B6009
:10077000FB69002B00D138E034E03A69BB691340D3
:10078000002B0FD17A69FB699A420BD8BB69002212
:100790001A607B69BA691344BB617B69FA69D31A31
:1007A000FB611FE0BA68BB691340002B0FD1FA68E8
:1007B000FB699A420BD8BB6900221A80FB68BA69B0
:1007C0001344BB61FB68FA69D31AFB610AE0BB6999
:1007D00000221A707B68BA691344BB617B68FA69AE
:1007E000D31AFB61FB69002BC7D12437BD465DF8E6
:1007F000047B704780B400AFBD465DF8047B704752
:1008000080B400AFBD465DF8047B704780B582B010
:1008100000AF40F20003C2F203037B60FFF7EAFF80
:1008200000F028F87B681846002800F0088085460C
:1008300081B04FF000006FEA0000009001B0FFF7B8
:100840007BFFFFF7FDFEFFF7DBFF002040F21C01FE
:10085000C2F20001FFF772FEFEE700BF80B483B072
:1008600000AF78607B6883F311880C37BD465DF874
:10087000047B704780B500AF4FF0E02240F20003E8
:10088000C0F20003C2F8083D4FF40053C4F2050360
:100890004CF22052DA814FF40053C4F205034DF6B6
:1008A0002812DA814FF40053C4F205034FF4E972C1
:1008B0001A804FF4E043C4F204034FF4E042C4F260
:1008C000040202F581521C32126842F0005203F514
:1008D00081531C331A604FF45043C4F203031B6965
:1008E00003F48073002B23D14FF45043C4F203036D
:1008F0004FF45042C4F20302126922F470521A619A
:100900004FF45043C4F203034FF45042C4F20302C5
:10091000126942F480721A614FF45043C4F2030327
:100920004FF45042C4F20302126922F400721A61B9
:100930004FF4E043C4F2040303F5825304334FF051
:10094000A2721A60002000F097F84FF4E043C4F25E
:1009500004034FF4881203F5825304331A604FF4F2
:10096000E043C4F204034FF4E042C4F2040212680C
:1009700022F440214FF400220A431A604FF4E0436E
:10098000C4F204034FF4E042C4F2040202F58052C0
:100990000432126822F4403100220A4303F58053E6
:1009A00004331A6080BD00BF80B500AF4FF46043D0
:1009B000C4F2070320221A7000F0DCFD01F034F9C4
:1009C000F020FFF74BFF80BD80B400AF4FF48043B1
:1009D000C4F206031B78DBB203F0C003402B1DD02A
:1009E000802B29D0002B41D14FF48043C4F2060361
:1009F0005B79DBB203F04003002B0DD14FF4804351
:100A0000C4F206031B78DBB203F00403002B01D110
:100A100003232CE000232AE0072328E04FF480433F
:100A2000C4F206035B78DBB203F00203002B01D1B2
:100A300001231CE002231AE04FF48043C4F20603B2
:100A40005B79DBB203F04003002B0DD14FF4804300
:100A5000C4F206035B78DBB203F00203002B01D182
:100A6000042304E0052302E0062300E000231846E7
:100A7000BD465DF8047B704790B587B000AF034674
:100A8000FB71F97942F2F002C0F200020B46DB0082
:100A90005B1A9B0013441B88BB82BB8A03F0C00314
:100AA000002B32D04FF4E043C4F204034FF4E04291
:100AB000C4F2040202F581521832126842F4007244
:100AC00003F5815318331A604FF41043C4F2040342
:100AD0004FF41042C4F20402926C22F0807222F4AD
:100AE000E0629A64BB8A03F08003002B0DD04FF4C0
:100AF0001043C4F204034FF41042C4F20402D26C57
:100B000022F0807222F4E062DA644FF48043C4F28F
:100B100006031B7ADBB203F00E00F97942F2F00211
:100B2000C0F200020B46DB005B1A9B0013441B7AE9
:100B3000984200F0C1804FF48043C4F206035B7812
:100B4000DBB203F00103002B1FD14FF48042C4F24B
:100B500006024FF48043C4F206031B7ADBB2DBB219
:100B600023F00E03DCB2F87942F2F001C0F200018A
:100B70000346DB001B1A9B000B441B7ADBB22146A9
:100B80000B43DBB2DBB2137296E04FF48043C4F246
:100B900006031B78DBB203F00103002B51D04FF4A6
:100BA0008043C4F206034FF48042C4F20602527836
:100BB000D2B222F00102D2B25A7000BF4FF4804389
:100BC000C4F206039B79DBB203F00103002BF5D1DD
:100BD0004FF48042C4F206024FF48043C4F206038D
:100BE0001B7ADBB2DBB223F00E03DCB2F87942F2FF
:100BF000F001C0F200010346DB001B1A9B000B440E
:100C00001B7ADBB221460B43DBB2DBB213724FF42B
:100C10008043C4F206034FF48042C4F206025278C5
:100C2000D2B242F00102D2B25A7000BF4FF48043F8
:100C3000C4F206039B79DBB203F00103002BF5D06D
:100C40003AE04FF48043C4F206034FF48042C4F20A
:100C500006025278D2B222F00102D2B25A704FF498
:100C60008042C4F206024FF48043C4F206031B7AAA
:100C7000DBB2DBB223F00E03DCB2F87942F2F00112
:100C8000C0F200010346DB001B1A9B000B441B7AD9
:100C9000DBB221460B43DBB2DBB213724FF480436D
:100CA000C4F206034FF48042C4F206025278D2B274
:100CB00042F00102D2B25A70FFF786FE0346FB8271
:100CC000FB8A03F00F01BB8A03F00F0242F27003AC
:100CD000C0F20003C9000A4433F81230FB82FA8ADA
:100CE000BB8A03F00F039A4213D1F97942F2F00262
:100CF000C0F200020B46DB005B1A9B001A4407F1AE
:100D00000C030332106818609188927999809A7167
:100D100010E0FB8A03F00F0242F2BC13C0F20003A2
:100D200053F8222007F10C0310681860918892791B
:100D300099809A71FB8A03F00F03072B00F225823A
:100D400001A252F823F000BF690D0000690D0000F8
:100D5000630E0000DB0E0000DB0E0000F50F00004C
:100D600093100000931000004FF48043C4F2060378
:100D70003A7B1A7000BF4FF48043C4F206039B799C
:100D8000DBB203F01003002BF5D04FF48043C4F224
:100D900006037A7B22F04002D1B24FF48042C4F2C3
:100DA00006025278D2B202F04002D2B20A43D2B264
:100DB0005A704FF48043C4F20603BA7B22F01F023C
:100DC000D1B24FF48042C4F20602D278D2B202F01D
:100DD0001F02D2B20A43D2B2DA704FF4A043C4F277
:100DE0000603BA7C1A70BB8A03F48073002B06D00A
:100DF0004FF48043C4F2060301221A7311E0BB8A48
:100E000003F48063002B06D04FF48043C4F2060342
:100E100002221A7305E04FF48043C4F20603002255
:100E20001A734FF48043C4F20603FA7B1A71BB8A2B
:100E300003F40073002B0DD04FF48043C4F206037B
:100E40004FF48042C4F206021279D2B242F040025C
:100E5000D2B21A714FF48043C4F206033A7C5A713D
:100E600094E14FF48043C4F206033A7B1A7000BF4A
:100E70004FF48043C4F206039B79DBB203F0100306
:100E8000002BF5D04FF48043C4F206037A7B22F0A6
:100E90004002D1B24FF48042C4F206025278D2B27C
:100EA00002F04002D2B20A43D2B25A704FF4A043C9
:100EB000C4F20603BA7C1A70BB8A03F02003002B2D
:100EC0000AD000BF4FF48043C4F206039B79DBB223
:100ED00003F00103002BF5D058E14FF48043C4F236
:100EE00006037A7B22F04002D1B24FF48042C4F272
:100EF00006025278D2B202F04002D2B20A43D2B213
:100F00005A704FF4A043C4F20603BA7C1A70BB8A2D
:100F100003F48073002B06D04FF48043C4F2060321
:100F200001221A7311E0BB8A03F48063002B06D000
:100F30004FF48043C4F2060302221A7305E04FF413
:100F40008043C4F2060300221A734FF48043C4F2B4
:100F500006033A7B1A70BB8A03F08003002B0AD089
:100F600000BF4FF48043C4F206039B79DBB203F069
:100F70000203002BF5D000BF4FF48043C4F20603F8
:100F80009B79DBB203F01003002BF5D14FF48043C3
:100F9000C4F20603BA7B22F01F02D1B24FF48042A2
:100FA000C4F20602D278D2B202F01F02D2B20A43D1
:100FB000D2B2DA704FF48043C4F20603FA7B1A719E
:100FC000BB8A03F40073002B0DD04FF48043C4F2AE
:100FD00006034FF48042C4F206021279D2B242F004
:100FE0004002D2B21A714FF48043C4F206033A7C35
:100FF0005A71CBE04FF48043C4F206033A7B1A7077
:101000004FF48043C4F206037A7B22F04002D1B24F
:101010004FF48042C4F206025278D2B202F040028B
:10102000D2B20A43D2B25A704FF4A043C4F20603BC
:10103000BA7C1A70BB8A03F48073002B06D04FF47D
:101040008043C4F2060301221A7311E0BB8A03F441
:101050008063002B06D04FF48043C4F206030222C3
:101060001A7305E04FF48043C4F2060300221A739A
:10107000BB8A03F08003002B0AD000BF4FF48043EB
:10108000C4F206039B79DBB203F00203002BF5D018
:101090007CE04FF4A043C4F20603BA7C1A70BB8A0A
:1010A00003F48073002B06D04FF48043C4F2060390
:1010B00001221A7311E0BB8A03F48063002B06D06F
:1010C0004FF48043C4F2060302221A7305E04FF482
:1010D0008043C4F2060300221A734FF48043C4F223
:1010E00006033A7B1A704FF48043C4F206037A7BFE
:1010F00022F04002D1B24FF48042C4F2060252788C
:10110000D2B202F04002D2B20A43D2B25A70BB8AC3
:1011100003F00F03072B20D14FF48042C4F20602E4
:10112000F87942F2F001C0F200010346DB001B1A1D
:101130009B000B449B7913714FF48042C4F206026A
:10114000F87942F2F001C0F200010346DB001B1AFD
:101150009B000B44DB7953710BE04FF48043C4F2E6
:101160000603FA7B1A714FF48043C4F206033A7CFB
:101170005A7100BF4FF48043C4F206039B79DBB27F
:1011800003F04003002BF5D000E000BFFB8A072BE3
:1011900042D801A252F823F0B9110000D111000089
:1011A000D1110000B9110000E9110000E91100009F
:1011B000E91100000112000000BF4FF48043C4F2A7
:1011C00006039B79DBB203F00C03002BF5D123E07F
:1011D00000BF4FF48043C4F206039B79DBB203F0F7
:1011E0000C03042BF5D117E000BF4FF48043C4F289
:1011F00006039B79DBB203F00C03082BF5D10BE05F
:1012000000BF4FF48043C4F206039B79DBB203F0C6
:101210000C030C2BF5D100BFFA8ABB8A03F00F0335
:101220009A427FF44DAD1C37BD4690BD80B400AFEF
:1012300040F24503C2F200031B781846BD465DF834
:10124000047B7047684620F007018D4681B400AFEB
:10125000FFBEBD4681BC8546704700BF80B485B0E7
:1012600000AF786040F24803C2F20003FB60FB6805
:101270007A681A604FF4E043C4F204034FF4E0428A
:10128000C4F2040202F581521832126842F400528C
:1012900003F5815318331A604FF47143C4F20F03FE
:1012A0004FF47142C4F20F02526942F080625A61F7
:1012B0004FF47143C4F20F034FF47142C4F20F02B2
:1012C000126822F080621A604FF45043C4F20403A3
:1012D0004FF45042C4F20402926E22F0807222F463
:1012E000E06242F480729A6640F25403C2F2000354
:1012F000FA681A60FB6818461437BD465DF8047B2F
:10130000704700BF80B483B000AF78604FF4714382
:10131000C4F20F034FF080629A600C37BD465DF84F
:10132000047B704780B483B000AF78604FF47143A2
:10133000C4F20F034FF080625A600C37BD465DF86F
:10134000047B704780B483B000AF78604FF4714382
:10135000C4F20F034FF08062DA600C37BD465DF8CF
:10136000047B704780B485B000AF786040F24C03D6
:10137000C2F20003FB60FB687A681A604FF4E04336
:10138000C4F204034FF4E042C4F2040202F58152B5
:101390001832126842F4806203F5815318331A60E0
:1013A0004FF24003C4F20F034FF24002C4F20F02A7
:1013B000526942F400125A614FF24003C4F20F0323
:1013C0004FF24002C4F20F02126822F400121A60B7
:1013D0004FF42043C4F204034FF42042C4F2040249
:1013E000526D22F0807222F4E06242F480725A65FB
:1013F00040F25403C2F20003FA685A60FB681846D0
:101400001437BD465DF8047B704700BF80B483B0DD
:1014100000AF78604FF24003C4F20F034FF40012A4
:101420009A600C37BD465DF8047B704780B483B08A
:1014300000AF78604FF24003C4F20F034FF4001284
:101440005A600C37BD465DF8047B704780B483B0AA
:1014500000AF78604FF24003C4F20F034FF4001264
:10146000DA600C37BD465DF8047B704780B485B008
:1014700000AF786040F25003C2F20003FB60FB68EB
:101480007A681A604FF4E043C4F204034FF4E04278
:10149000C4F2040202F581521832126842F48062EA
:1014A00003F5815318331A604FF24003C4F20F035F
:1014B0004FF24002C4F20F02526942F480025A61B4
:1014C0004FF24003C4F20F034FF24002C4F20F0286
:1014D000126822F480021A604FF42043C4F204031D
:1014E0004FF42042C4F20402926D22F0807222F482
:1014F000E06242F480729A6540F25403C2F2000343
:10150000FA689A60FB6818461437BD465DF8047B9C
:10151000704700BF80B483B000AF78604FF24003E3
:10152000C4F20F034FF480029A600C37BD465DF899
:10153000047B704780B483B000AF78604FF2400303
:10154000C4F20F034FF480025A600C37BD465DF8B9
:10155000047B704780B483B000AF78604FF24003E3
:10156000C4F20F034FF48002DA600C37BD465DF819
:10157000047B704780B400AF4FF4E043C4F204032F
:101580004FF4E042C4F2040202F5815218321268AC
:1015900042F4785203F5815318331A604FF4104324
:1015A000C4F204034FF41042C4F20402126B22F09E
:1015B000807222F4E06242F480621A634FF41043B6
:1015C000C4F204034FF41042C4F20402526B22F03E
:1015D000807222F4E06242F480625A634FF4104356
:1015E000C4F204034FF41042C4F20402926B22F0DE
:1015F000807222F4E06242F480629A634FF41043F6
:10160000C4F204034FF41042C4F20402D26B22F07D
:10161000807222F4E06242F48062DA634FF4104395
:10162000C4F204034FF41042C4F20402126C22F01C
:10163000807222F4E06242F480621A644FF4104334
:10164000C4F204034FF41042C4F20402526C22F0BC
:10165000807222F4E06242F480625A644FF41043D4
:10166000C4F204034FF41042C4F20402126922F0DF
:10167000807222F4E06242F480721A614FF41043E7
:10168000C4F204034FF41042C4F20402526922F07F
:10169000807222F4E06242F480625A614FF4204387
:1016A000C4F204034FF42042C4F20402126822F090
:1016B000807222F4E06242F480621A604FF42043A8
:1016C000C4F204034FF42042C4F20402526822F030
:1016D000807222F4E06242F480625A604FF4204348
:1016E000C4F204034FF42042C4F20402126C22F04C
:1016F000807222F4E06242F440721A644FF4204394
:10170000C4F204034FF42042C4F20402526C22F0EB
:10171000807222F4E06242F440725A644FF4204333
:10172000C4F204034FF42042C4F20402926C22F08B
:10173000807222F4E06242F400729A644FF4204313
:10174000C4F204034FF42042C4F20402D26C22F02B
:10175000807222F4E06242F40072DA644FF42043B3
:10176000C4F204034FF42042C4F20402126D22F0CA
:10177000807222F4E06242F4C0621A654FF42043A2
:10178000C4F204034FF42042C4F20402526D22F06A
:10179000807222F4E06242F480725A654FF4204372
:1017A000C4F204034FF42042C4F20402926D22F00A
:1017B000807222F4E06242F480729A654FF4304302
:1017C000C4F204034FF43042C4F20402126822F05F
:1017D000807222F4E06242F480721A604FF4304367
:1017E000C4F204034FF43042C4F20402526822F0FF
:1017F000807222F4E06242F4C0625A604FF43043D7
:10180000C4F204034FF43042C4F20402926A22F09C
:10181000807222F4E06242F400729A624FF4304324
:10182000C4F204034FF43042C4F20402D26A22F03C
:10183000807222F4E06242F40072DA624FF43043C4
:10184000C4F204034FF43042C4F20402126B22F0DB
:10185000807222F4E06242F480721A634FF43043E3
:10186000C4F204034FF43042C4F20402526B22F07B
:10187000807222F4E06242F480725A634FF4304383
:10188000C4F204034FF43042C4F20402926B22F01B
:10189000807222F4E06242F440729A634FF4304363
:1018A000C4F204034FF43042C4F20402D26B22F0BB
:1018B000807222F4E06242F44072DA634FF4304303
:1018C000C4F204034FF43042C4F20402126C22F05A
:1018D000807222F4E06242F480621A644FF4304372
:1018E000C4F204034FF43042C4F20402526C22F0FA
:1018F000807222F4E06242F480625A644FF4304312
:10190000C4F204034FF43042C4F20402926C22F099
:10191000807222F4E06242F480629A644FF43043B1
:10192000C4F204034FF43042C4F20402526922F0BC
:10193000807222F4E06242F480625A614FF43043D4
:10194000C4F204034FF43042C4F20402926922F05C
:10195000807222F4E06242F480729A614FF4304364
:10196000C4F204034FF43042C4F20402D26922F0FC
:10197000807222F4E06242F48062DA614FF4304314
:10198000C4F204034FF43042C4F20402126A22F09B
:10199000807222F4E06242F480621A624FF43043B3
:1019A000C4F204034FF43042C4F20402526A22F03B
:1019B000807222F4E06242F480625A624FF4404343
:1019C000C4F204034FF44042C4F20402126822F04D
:1019D000807222F4E06242F400721A604FF44043D5
:1019E000C4F204034FF44042C4F20402526822F0ED
:1019F000807222F4E06242F400725A604FF4404375
:101A0000C4F204034FF44042C4F20402926822F08C
:101A1000807222F4E06242F400729A604FF4404314
:101A2000C4F204034FF44042C4F20402D26822F02C
:101A3000807222F4E06242F40072DA604FF44043B4
:101A4000C4F204034FF44042C4F20402126922F0CB
:101A5000807222F4E06242F4E0621A614FF4404383
:101A6000C4F204034FF44042C4F20402526922F06B
:101A7000807222F4E06242F4E0625A614FF4404323
:101A8000C4F204034FF44042C4F20402926922F00B
:101A9000807222F4E06242F4E0629A614FF44043C3
:101AA000C4F204034FF44042C4F20402D26922F0AB
:101AB000807222F4E06242F4E062DA614FF4504353
:101AC000C4F204034FF45042C4F20402126822F03C
:101AD000807222F4E06242F480621A604FF4504354
:101AE000C4F204034FF45042C4F20402526822F0DC
:101AF000807222F4E06242F480625A604FF45043F4
:101B0000C4F204034FF45042C4F20402926822F07B
:101B1000807222F4E06242F480629A604FF4504393
:101B2000C4F204034FF45042C4F20402126E22F0D5
:101B3000807222F4E06242F4A0621A664FF45043CD
:101B4000C4F204034FF45042C4F20402526E22F075
:101B5000807222F4E06242F4A0625A664FF450436D
:101B6000C4F204034FF45042C4F20402926E22F015
:101B7000807222F4E06242F480729A664FF450431D
:101B8000C4F204034FF45042C4F20402D26822F0BB
:101B9000807222F4E06242F48062DA604FF45043D3
:101BA000C4F204034FF45042C4F20402126922F05A
:101BB000807222F4E06242F480621A614FF4504372
:101BC000C4F204034FF45042C4F20402526922F0FA
:101BD000807222F4E06242F480625A614FF4504312
:101BE000C4F204034FF45042C4F20402926922F09A
:101BF000807222F4E06242F480729A614FF4E04312
:101C0000C4F204034FF4E042C4F2040202F581522C
:101C10001832126822F4785203F5815318331A608F
:101C2000BD465DF8047B704780B500AF0020FFF72C
:101C300015FB40F25403C2F200031B681846FFF77D
:101C400061FB0020FFF78EFB40F25403C2F2000359
:101C50005B681846FFF7DAFB0020FFF707FC40F24D
:101C60005403C2F200039B681846FFF753FC0020A0
:101C700000F042F980BD00BF80B582B000AF78604F
:101C8000FEF71CFC0837BD4680BD00BF80B584B0A0
:101C900000AF786040F25403C2F20003DB68002B0F
:101CA0005CD140F26803C2F20003FB60FB687A6813
:101CB0005A60FB6801229A7040F27003C2F200037E
:101CC000FA681A604FF4E043C4F204034FF4E042B0
:101CD000C4F2040202F581521832126842F0010285
:101CE00003F5815318331A600023C4F204038022E1
:101CF0001A600023C4F204034FF6FF729A600023B7
:101D0000C4F204030C225A604FF46143CEF2000384
:101D1000702283F83A234FF46143CEF200034FF46C
:101D20006142CEF20002526842F080625A600023A3
:101D3000C4F2040340221A60FB6801221A70FFF704
:101D400075FA0346F868194600F01CF840F254038F
:101D5000C2F20003FA68DA60FB680FE040F2540355
:101D6000C2F20003DB68FB60FB687A685A60FB68BC
:101D70009B780133DAB2FB689A70FB68184610371B
:101D8000BD4680BD80B584B000AF78600B46FB7067
:101D90007B68FB600023C4F204030022C4F2040247
:101DA000126822F081021A60FB78002B19D1FB68BF
:101DB00001225A700023C4F204030022C4F2040278
:101DC000526822F0030242F002025A600023C4F279
:101DD00004030022C4F20402526822F07C025A601A
:101DE00003E0FB6800225A7000BF786800F026F814
:101DF0001037BD4680BD00BF684620F007018D4604
:101E000081B583B000AF40F27003C2F200031B68DB
:101E10007B600023C4F204030022C4F204021268AF
:101E200042F080021A607B685B68184600F0B0F8E8
:101E30000C37BD46BDE881408546704780B485B00B
:101E400000AF78607B68FB60EFF3138071B6F872C7
:101E500040F24403C2F200031B78DBB20133DBB271
:101E60001A4640F24403C2F2000311461970012AD7
:101E700005D1FA7A40F28003C2F200031A70FB68BF
:101E80005B78002B10D0FB681B78002B0CD0002354
:101E9000C4F204030022C4F20402126822F0810298
:101EA00042F001021A6009E00023C4F20403002298
:101EB000C4F20402126822F081021A6040F2440364
:101EC000C2F200031B78DBB2013BDBB21A4640F2E0
:101ED0004403C2F2000311461970002A06D140F2F1
:101EE0008003C2F20003187880F313881437BD46CC
:101EF0005DF8047B704700BF80B584B000AF7860A8
:101F000040F27403C2F20003FB60FB687A689A60D7
:101F1000FB6801221A7140F25403C2F20003FA680E
:101F20001A610020FFF7B2FE0246FB681A60FB68E8
:101F30001B68002B07D140F25403C2F200030022B9
:101F40001A61002307E0FFF771F90346F8681946A4
:101F500000F006F8FB6818461037BD4680BD00BF8C
:101F600080B485B000AF78600B46FB707B68FB6087
:101F7000FB78002B03D1FB6801225A7103E0FB6858
:101F800000225A7100BF1437BD465DF8047B7047CC
:101F900080B584B000AF786040F25403C2F2000311
:101FA0001B69FB60FB689B681846FFF765FE1037EE
:101FB000BD4680BD00BF00BF00BF7047002000BF0E
:101FC00000BF00BF00BF00BF00F1010009287FF67D
:101FD000F6AF00BF704700BF80B582B000AF0346C8
:101FE000FB8004E0FFF7EAFFFB88643BFB80FB8893
:101FF000642BF7D804E0FFF7DDFFFB880A3BFB808A
:10200000FB880A2BF7D80837BD4680BD80B582B063
:1020100000AF786008E04EF66020FFF7DDFF7B68D8
:10202000A3F56A43603B7B607A684EF660239A4270
:10203000F1D87B689BB21846FFF7CEFF0837BD4644
:1020400080BD00BF80B584B000AF0346FB8045F281
:10205000EB13FB6005E0F868FFF7D8FFFB88013B56
:10206000FB80FB88002BF6D11037BD4680BD00BF3A
:10207000000001000100030004000400040004004B
:10208000000001000200030004000400040004003A
:102090000100010002000100010001000100010037
:1020A000000001000100030004000400040004001B
:1020B0000000010001000300040005000600060006
:1020C00004000400040004000400050006000600EB
:1020D00004000400040004000400050006000700DA
:1020E00006000600060006000600060006000700BF
:1020F000100000062400000000000000000008009E
:102100000000000000001100000040019700001ACC
:1021100024000146008000000000080000000100CB
:102120000000140100879303A2000046270000006E
:102130000080000000000800000001000000040012
:1021400000093D0025010082270000000200000078
:1021500000000800000001000000000000800000F6
:102160009700001A240001460080000000000800CB
:1021700000000100000014010087930304800000A8
:1021800000020000448000000002000044820000C1
:102190000002000018A400000002000098A4000043
:1021A0000002000058A600000002000080A4000108
:1021B0005802000018A40001580200007C21000011
:1021C000842100008C210000942100009C2100004B
:1021D000A4210000AC210000B4210000F8B500BF2C
:1021E000F8BC08BC9E467047F8B500BFF8BC08BCF8
:0421F0009E46704750
:0421F400850400005E
:0421F8005904000086
:1021FC00FC2100000000002000000000FC21000079
:10220C000000FF1F000000000000000000000000A4
:04221C0000000000BE
:040000030000080DE4
:00000001FF
