:10000000003000207D0800003D0A0000490A000081
:10001000490A0000490A0000490A0000490A000094
:10002000490A0000490A0000490A0000490A000084
:10003000490A0000490A0000490A0000490A000074
:10004000490A0000490A0000490A0000490A000064
:10005000490A0000490A0000490A0000490A000054
:10006000490A0000490A0000490A0000490A000044
:10007000490A0000490A0000490A0000490A000034
:10008000490A000049100000490A0000490A00001E
:10009000490A0000490A0000490A0000490A000014
:1000A000490A0000490A0000490A0000490A000004
:1000B000090F0000490A0000490A0000490A00002F
:10040000FFFFFFFFFFFFFFFFFFFFFFFF7EFFFFFF7D
:100410008446081C6146FFE71FB500F001FF002875
:1004200001D40021C8421FBD10B500F08CFE40422F
:10043000013010BD10B500F0F3FE002801DB0020F4
:1004400010BD012010BDC04610B500F0E9FE002827
:1004500001DD002010BD012010BDC04610B500F028
:1004600095FE002801DC002010BD012010BDC04613
:1004700010B500F08BFE002801DA002010BD01202D
:1004800010BDC04602B4714649084900095C4900E4
:100490008E4402BC7047C0461C2101231B049842B5
:1004A00001D3000C10391B0A984201D3000A083905
:1004B0001B09984201D30009043902A2105C4018BC
:1004C0007047C04604030202010101010000000060
:1004D0000000000008B5054B054803331B1A062B26
:1004E00003D9044B002B00D0984708BD00F0FF1F34
:1004F00000F0FF1F000000000648074908B5091A70
:100500008910CB0F5918491003D0044B002B00D091
:10051000984708BD00F0FF1F00F0FF1F000000001B
:10052000084B10B51A781C1C002A09D1FFF7D2FF1E
:10053000054B002B02D0054800E000BF01232370CB
:1005400010BDC04600F0FF1F000000002C18000086
:1005500008B5094B002B03D00848094900E000BF4B
:1005600008480368002B03D0074B002B00D09847A6
:10057000FFF7C2FF08BDC046000000002C180000B5
:1005800004F0FF1F00F0FF1F0000000080B500AF67
:10059000BD4680BD80B500AF002000F0C3F91A4B06
:1005A0009B69181C00F088FBC046174B9B69181C00
:1005B000042100F0BFFB031C002BF6D0002000F04C
:1005C000EFF9114B9B69181C00F076FBC0460E4BEF
:1005D0009B69181C042100F0ADFB031C002BF6D016
:1005E000002000F01DFA084B9B69181C00F064FB0A
:1005F000C046054B9B69181C042100F09BFB031CA3
:10060000002BF6D0BD4680BD54F0FF1F80B500AF73
:1006100000F0B0FAFEE7C04680B582B000AF786067
:100620003960BD4602B080BD80B58AB000AFF860C9
:10063000B9607A607B687B6204233B620323FB61C1
:100640000223BB6101237B6101233B61FA68BB6824
:100650009A4202D07B68002B00D14DE049E0FB6953
:10066000BA68134018D1FB69FA68134014D13A6A8A
:100670007B6A9A4210D8FB68BA6812681A603B6AB3
:10068000FA68D318FB603B6ABA68D318BB603B6A50
:100690007A6AD31A7B622CE07B69BA68134018D15E
:1006A0007B69FA68134014D1BA697B6A9A4210D800
:1006B000FB68BA6812881A80BB69FA68D318FB60B5
:1006C000BB69BA68D318BB60BB697A6AD31A7B620C
:1006D0000FE0FB68BA6812781A703B69FA68D318A1
:1006E000FB603B69BA68D318BB603B697A6AD31A6E
:1006F0007B627B6A002BB2D1BD460AB080BDC0468A
:1007000090B583B000AF2D4B002B00D153E00023F8
:100710007B6032E029497A68131C5B009B189B00C0
:10072000CB18586825497A68131C5B009B189B00FE
:100730005958224C7A68131C5B009B189B00E318E5
:1007400008331B681A1CFFF76FFF1C497A68131CDB
:100750005B009B189B00CB18596818487A68131CDB
:100760005B009B189B00C31808331B68081C191CEE
:10077000FFF752FF7B6801337B6010497A68131CD6
:100780005B009B189B005B58002BC3D10B497A6818
:10079000131C5B009B189B00CB185B68002BB9D126
:1007A00006497A68131C5B009B189B00CB18083322
:1007B0001B68002BAED1BD4603B090BD4C180000A5
:1007C00080B588B000AF274A274BD31AFB61264B70
:1007D000BB6104237B6103233B610223FB60012394
:1007E000BB6001237B60FB69002B00D136E032E067
:1007F0003B69BA6913400FD17A69FB699A420BD8F9
:10080000BB6900221A607B69BA69D318BB617B6936
:10081000FA69D31AFB611EE0BB68BA6913400FD1B5
:10082000FA68FB699A420BD8BB6900221A80FB6800
:10083000BA69D318BB61FB68FA69D31AFB610AE095
:10084000BB6900221A707B68BA69D318BB617B68E8
:10085000FA69D31AFB61FB69002BC9D1BD4608B008
:1008600080BDC046A8F0FF1F00F0FF1F80B500AF9D
:10087000BD4680BD80B500AFBD4680BD80B582B0AD
:1008800000AF0E4B7B60FFF7F1FF00F0E3F87B68F1
:10089000181C002805D0854681B00020C043009078
:1008A00001B0FFF78DFFFFF72BFFFFF7E3FF044BCE
:1008B0000020191CFFF7AAFEFEE7C046003000200A
:1008C0001CF0FF1F80B584B000AF7860104BFB6058
:1008D000FB687A681A600F4B0E4A526902210A437C
:1008E0005A610C4B0B4A126802210A431A600A4BE8
:1008F000094A5168094A0A40802149000A435A605E
:10090000074BFA689A60FB68181CBD4604B080BDAE
:1009100044F0FF1FC0F00F4000C00440FFF8FFFE8E
:1009200054F0FF1F80B582B000AF7860024B022206
:10093000DA60BD4602B080BDC0F00FF880B584B06B
:1009400000AF7860114BFB60FB687A681A60104B4F
:100950000F4A5269802109030A435A610C4B0C4A21
:100960001268802109030A431A600A4B094AD16CB4
:10097000094A0A40802149000A43DA64074BFA68B1
:10098000DA60FB68181CBD4604B080BD48F0FF1F4C
:1009900040F00F4000A00440FFF8FFFE54F0FF1F9E
:1009A00080B582B000AF7860034B80221203DA601A
:1009B000BD4602B080BDC04640F00FF880B584B09F
:1009C00000AF7860114BFB60FB687A681A60104BCF
:1009D0000F4A52698021C9020A435A610C4B0C4AE2
:1009E00012688021C9020A431A600A4B094A916CB5
:1009F000094A0A40802149000A439A64074BFA6871
:100A00001A61FB68181CBD4604B080BD4CF0FF1F86
:100A100040F00F4000A00440FFF8FFFE54F0FF1F1D
:100A200080B582B000AF7860034B8022D202DA60DA
:100A3000BD4602B080BDC04640F00FF880B500AFA3
:100A4000FFF7A4FDBD4680BD80B500AFFFBEBD462B
:100A500080BDC04680B500AF3A4A3B493B4BD150C0
:100A60003B4A88235B010021D150394A394BC021D0
:100A70008902D150364A3649374BCB58B02149010B
:100A80001943354BD150324A3149334BCB580121B0
:100A90001943314BD150314B9B78DBB21A1C0823E0
:100AA000134007D02D4B2D4A9278D2B208210A4329
:100AB000D2B29A70264A274B0021D150244A2449A9
:100AC000274BC958274B1940254BD150204B204A62
:100AD0001268C02109030A431A601D4A1C49204BB1
:100AE000C958214B0B408021490419431C4BD1505C
:100AF0001E4B06221A701D4B00225A701B4B1B4ABC
:100B0000D278D1B21F220A40D2B2DA70184B8022BA
:100B10001A70164B00221A71144B00225A71C046EB
:100B2000124B9B79DBB21A1C10231340F8D0C0463D
:100B30000E4B9B79DBB21A1C0C231340F8D1BD4637
:100B400080BDC04600E000E000000000080D00008D
:100B500000700440441000003810000000D007402E
:100B600004100000FFFFFEFFFFFFFFFC00400640F7
:100B70000050064080B500AF314B314A1169314A0F
:100B80000A40E021C9000A431A612F4B2E4A5279CC
:100B9000D2B21F218A43D2B25A712B4B2A4A127900
:100BA000D2B207218A43D2B21A71284B274A12784F
:100BB000D2B2D2B273218A43D2B250210A43D2B206
:100BC000D2B21A70214B214A5278D2B2D2B26321EA
:100BD0008A43D2B240210A43D2B2D2B25A701B4BDE
:100BE0001A4A9278D2B219218A43D2B29A70184B1B
:100BF00000221A70124B124A116D124A0A40E0216B
:100C0000C9000A431A65134A1249C1239B00C958F7
:100C1000114B1940C1239B00D150002000F042FA33
:100C20000020FFF74FFE0020FFF788FE0020FFF7AF
:100C3000C5FE002000F012F862B6BD4680BDC04679
:100C400000900440FFF8FFFE00F0074000D007408E
:100C500000E0074000E100E0FFFF00FF80B584B046
:100C600000AF7860124BFB60FB687A689A60FB68A3
:100C700000225A71FB6800229A71FB6801221A71E6
:100C80000C4BFA689A61002000F056F9021CFB68D0
:100C90001A60FB681B68002B04D1064B00229A6186
:100CA000002300E0FB68181CBD4604B080BDC046B0
:100CB00070F0FF1F54F0FF1F80B584B000AF786064
:100CC0007B68FB603B1C0B33EFF3108072B618702F
:100CD000164B1B78DBB20133DBB2144A191C1170BE
:100CE000012B04D13B1C0B331A78114B1A70FB6893
:100CF0001B68181C00F09AF9FB6800225A71FB6807
:100D000000229A71094B1B78DBB2013BDBB2074A28
:100D1000191C1170002B03D1054B187880F3108833
:100D20000023181CBD4604B080BDC04650F0FF1F14
:100D3000A4F0FF1F80B586B000AF786039607B6893
:100D40007B613B1C0B33EFF3108072B61870284B9D
:100D50001B78DBB20133DBB2254A191C1170012B61
:100D600004D13B1C0B331A78224B1A703B1C1333F3
:100D70007A6952791A703B1C12337A6992791A7027
:100D80001B4B1B78DBB2013BDBB2194A191C1170FB
:100D9000002B03D1174B187880F310883B1C1233BB
:100DA0001B78002B01D004231DE03B1C13331B7860
:100DB000181C00F0F1FC031C181C0F4900F074FA19
:100DC000031CFB60F8680D49FFF748FB031C002B70
:100DD00001D0052307E0F86800F09EF9031C9AB2E1
:100DE0003B681A800023181CBD4606B080BDC04673
:100DF00050F0FF1FA4F0FF1F0000484200FF7F4794
:100E000080B584B000AF7860094B9B69FB60FB68DC
:100E10005B790133DAB2FB685A71FB685B79002BAE
:100E200002D1FB6801229A71BD4604B080BDC04664
:100E300054F0FF1F80B582B000AF7860FFF7AAFBC7
:100E4000BD4602B080BDC04680B584B000AF7860BA
:100E5000254B1B68002B36D1244BFB60FB687A685E
:100E60005A60FB6801221A70214BFA681A60214A05
:100E70002049214BCB58012119431F4BD1501F4B07
:100E800080221A601D4B1E4A9A601C4B04225A6035
:100E90001C4A1C49C7239B00CB58FF218B43802150
:100EA0001943C7239B00D150164B164A1268802164
:100EB00049050A431A60114B41221A600A4BFA682D
:100EC0001A60FB680CE0084B1B68FB60FB687A68E3
:100ED0005A60FB681B780133DAB2FB681A70FB6852
:100EE000181CBD4604B080BD54F0FF1F7CF0FF1FEE
:100EF00084F0FF1F00700440381000000000044020
:100F0000FF1F000000E100E080B582B000AF084B99
:100F10001B687B60074B074A126880210A431A60EE
:100F20007B685B68181C00F0E5F8BD4602B080BD28
:100F300084F0FF1F0000044080B584B000AF7860EB
:100F4000314B5B69002B4ED1304BFB60FB687A68FC
:100F50009A60FB6801221A712D4BFA681A602D4ABB
:100F60002C492D4BCB588021490419432A4BD15091
:100F70002A4B00221A60294B00225A60274B00227C
:100F8000DA60264B00225A61244B0022DA61234B9F
:100F900000225A62214B0022DA62204B00225A635F
:100FA0001E4B1F4A9A60FB68802252001A601D4A3D
:100FB0001C49C4239B00C9581B4B0B4080210902CC
:100FC0001943C4239B00D150164B164A1268802146
:100FD00089020A431A60114B4C221A600A4BFA68C4
:100FE0005A61FB680CE0084B5B69FB60FB687A6840
:100FF0009A60FB681B790133DAB2FB681A71FB68EF
:10100000181CBD4604B080BD54F0FF1F88F0FF1FC0
:1010100094F0FF1F007004403C100000008003406B
:10102000FFFF000000E100E0FF00FFFF80B582B09D
:1010300000AF7860034B00225A600023181CBD46A5
:1010400002B080BD0080034080B582B000AF134B7A
:101050001B683B6000237B60114B1A6880231340A0
:1010600004D07B688022520013437B603B681A687F
:101070007B6813407B607A6880235B0013400AD052
:10108000074B074A126880210A431A603B689B6835
:10109000181CFFF7B5FEBD4602B080BD94F0FF1FDF
:1010A0000080034080B584B000AF78600F4BFB60D8
:1010B000FB687A689A60FB6801221A710C4BFA6827
:1010C0005A600020FFF7C0FE021CFB681A60FB6834
:1010D0001B68002B04D1064B00225A60002300E05D
:1010E000FB68181CBD4604B080BDC04698F0FF1FC9
:1010F00054F0FF1F80B584B000AF7860054B5B688B
:10110000FB60FB689B68181CFFF794FEBD4604B0AB
:1011100080BDC04654F0FF1F9E2110B5C905041CB8
:10112000FFF7A6F900280AD09E21C905201C00F06F
:10113000A9F900F011FB80231B06C01802E0201C57
:1011400000F00AFB10BD70B543024C024D00420096
:101150005B0A120EC60F640A2D0EC90FFF2A02D1B8
:101160000120002B11D1FF2D02D10120002C0CD128
:101170000120AA4209D1A34207D18E4201D1002009
:1011800003E0002A01D1002BF9D070BDF0B54A0070
:101190004C02450246006D0A360EC30F640A120E59
:1011A000C90FFF2E01D1002D35D1FF2A01D1002C0E
:1011B00031D1002E05D1684268418446002A14D1FD
:1011C00002E0002A13D19446674267416046002836
:1011D00005D0201C002F22D100291ED013E0002FA3
:1011E00005D00120002B1AD017E00028F4D18B4243
:1011F00007D1964205DC02DA002B0ED003E0A542AF
:1012000003D9002B09D1012009E00020AC4206D906
:101210008342F8D101E0022000E001204042F0BD0D
:10122000F0B54A024E0044024500640A2D0EC30F79
:10123000520A360EC90FFF2D02D10220002C32D1E6
:10124000FF2E02D10220002A2DD10020854201D19B
:1012500060426041002E0FD157425741002805D00F
:10126000101C002F1FD100291BD013E0002F05D028
:101270000120002B17D014E00028F4D18B4207D1B5
:10128000B54205DC02DA002B0BD003E0944203D90F
:10129000002B06D1012006E00020A24203D98342A0
:1012A000F8D101204042F0BDF0B54600360E87B0BF
:1012B00044020F1CC00FF1B2640A00910290039027
:1012C000002909D0FF2914D080231B041C437F3937
:1012D000E4000091002510E00125002C0DD0201C19
:1012E000FFF7DAF8431F9C4076235B421B1A0093FA
:1012F000F0E7251C6B1E9D4102353B1C7E027F00E2
:10130000380E6A461074C2B2760ADF0F002A08D07F
:10131000FF2A12D080231B041E43F6007F3A0023CD
:101320000FE00123002E0CD0301CFFF7B5F8762219
:10133000431F52429E40121AF1E7331C591E8B4143
:101340000233A80002991843013879400E280DD8BD
:10135000FFF798F80A0A3F42427E3F427E423F082A
:1013600008083600029937E0341C34E0009B300C4A
:101370009A18230CA4B2B6B2251C754344435E43AD
:10138000019243433219280C1218B24202D2802033
:1013900040021B181004ADB240198401120C651EE6
:1013A000AC41800E9B1804439B011C4322011BD5BA
:1013B000019B012201330193630814401C4313E095
:1013C0008023DB031C4246D01E4244D1341C0397C9
:1013D00041E0341C391C1D1C022D41D0032D3BD093
:1013E0000022131C012D40D0019B7F33002B10DD08
:1013F000600704D00F222240042A00D004342201C6
:1014000003D51E4B1C40019B8033E208FE2B2CDDD4
:1014100026E07E22019B5242D21A1B2A23DC231C87
:10142000D340019A9E329440221C541EA2411A437A
:10143000500704D00F231340042B00D00432802324
:10144000DB041340D208002B0FD0002201230CE054
:1014500000210B4C039103998022D203224300E028
:101460000022FF2301E00022131C5202DBB2DB0545
:10147000500AC9071843084307B0F0BDFFFFFFF744
:10148000FFFF7F00F8B5420244004B02C50F480041
:10149000240E9209000EC90F9B09FF2801D1002BD1
:1014A00001D1012671408027261AFF048D4272D196
:1014B000311E10DD002809D1002B00D10BE1711E77
:1014C000002913D0FF2C00D02FE104E1FF2C00D124
:1014D00001E13B4329E1002E13D0002C0BD1041C69
:1014E000002A00D101E1F643002E01D19B1844E00F
:1014F000FF2835D1F9E0FF2800D1F1E076423A43E8
:101500002EE0611CFF200840012822DC002C0DD1B8
:10151000002A00D1E9E0002B00D1DCE09B183B421F
:1015200000D1E2E08A4A01241340DEE0FF24002AD1
:1015300000D1DAE0002B00D1CDE08021D208C90330
:101540000A4200D196E0DB080B4200D092E01A1C60
:1015500090E0FF2900D1B6E09B185B080C1CC4E0AA
:101560001B2E00DDEEE0111C2024F140A61BB24032
:10157000561EB2410A439B18041C590100D4B4E022
:101580000134FF2C00D1A1E0714901221A400B4027
:101590005B081343A9E0B446002E1FDD002809D1E3
:1015A000002B00D197E0013EB446002E13D0FF2C53
:1015B00004D190E0FF2C00D18DE03B4360461B2816
:1015C00000DDC1E066462020801B191C8340F140ED
:1015D000581E83410B43D31A291C57E0002E1BD001
:1015E000002C07D1002A73D0F643002E11D0FF281B
:1015F00004D16DE0FF286BD076423A431B2E00DD0C
:10160000A4E0141C2025F440AE1BB240561EB2418B
:1016100022439B1A041C39E0661CFF200640012E61
:101620002BDC002C12D1002A05D11D1C6A1E95410D
:101630006D420D4059E0002B4DD0D01A9B1A384214
:1016400047D1031E51D1231C251C4EE0002A05D191
:10165000002B42D13F4B041C151C46E0002B3ED012
:101660008020D208C003024204D0DB08034201D12B
:101670001A1C0D1CD300FF2437E0D61A3E4202D0BC
:101680009E1A0D1C07E0002E2CD004E00D1C580102
:101690002BD59B019E09301CFEF7FEFE05388640C7
:1016A00084420CDC041B1F23621C1C1B331C311CDA
:1016B000A340D1405E1EB3410B43002415E0244BF0
:1016C000241A334011E00C1C331C0EE000230CE004
:1016D000041C0D1C09E0131C07E00D1C00E0131C8A
:1016E000041C02E0331C341C351C5A0704D00F22A2
:1016F0001A40042A00D004335E0106D50134FF2CC1
:1017000002D0134A134000E00023DB08FF2C04D171
:10171000002B02D08022D20313435B02E4B2E40523
:10172000580AED0720432843F8BD1B2908DC181C84
:101730002026C840711A8B40591E8B410343D5E6C1
:101740000123D3E6012216E7012344E7012260E7E3
:10175000FFFFFFFBF8FFFF0341024300C20F00B58C
:10176000490A1B0E00207E2B12DD9D2B02DD094B4A
:10177000D0180DE0802000040843952B02DD963B35
:10178000984002E09621CB1AD840002A00D040426F
:1017900000BDC046FFFFFF7F70B5041E3AD0C60FE4
:1017A00000D04442201CFEF777FE9E23251C1B1A06
:1017B000962B02DC083884402EE0992B0ADD0522A6
:1017C000121A211CD1400A1C011C1B318D40691EBC
:1017D0008D411543052801DD421F9540124A2C1CFE
:1017E0001440690704D00F210D40042D00D00434AB
:1017F000610106D59F231B1AFF2B01D0144000E086
:101800000024E408FF2B07D1002C05D08022D2034E
:10181000144301E0031C061C6402DBB2DB05600A12
:10182000F6071843304370BDFFFFFFFBF8B5C04615
:10183000F8BC08BC9E467047F8B5C046F8BC08BC6A
:041840009E46704709
:04184400510500004A
:041848002105000076
:10184C004C18000000F0FF1F00000000000000001A
:08185C00000000000000000084
:040000030000087D74
:00000001FF
