S0120000746573746530365F50452E7372656393
S1130000003000209D0700005D0800006908000022
S11300106908000069080000690800006908000018
S11300206908000069080000690800006908000008
S113003069080000690800006908000069080000F8
S113004069080000690800006908000069080000E8
S113005069080000690800006908000069080000D8
S113006069080000690800006908000069080000C8
S113007069080000690800006908000069080000B8
S113008069080000690800006908000069080000A8
S11300906908000069080000690800006908000098
S11300A06908000069080000690800006908000088
S11300B0490B000069080000690800006908000095
S1130400FFFFFFFFFFFFFFFFFFFFFFFF7EFFFFFF79
S113041008B5054B054803331B1A062B03D9044BB7
S1130420002B00D0984708BD00F0FF1F00F0FF1F0D
S1130430000000000648074908B5091A8910CB0FC7
S11304405918491003D0044B002B00D0984708BD1D
S113045000F0FF1F00F0FF1F00000000084B10B564
S11304601A781C1C002A09D1FFF7D2FF054B002B78
S113047002D0054800E000BF0123237010BDC04630
S113048000F0FF1F00000000C40D000008B5094B78
S1130490002B03D00848094900E000BF084803685E
S11304A0002B03D0074B002B00D09847FFF7C2FF67
S11304B008BDC04600000000C40D000004F0FF1F8A
S11304C000F0FF1F0000000080B500AFBD4680BDF6
S11304D080B500AF002000F0B5F96F2000F056FCA5
S11304E0002000F0B5FB6F2000F050FC002000F06D
S11304F0A9F96F2000F04AFC002000F0E9FB6F200E
S113050000F044FC002000F0A3FB6F2000F03EFC50
S1130510002000F097F96F2000F038FC002000F074
S1130520D7FB002000F08EF9BD4680BD80B500AF3A
S113053000F030FAFEE7C04680B582B000AF7860C4
S11305403960BD4602B080BD80B58AB000AFF860A6
S1130550B9607A607B687B6204233B620323FB619E
S11305600223BB6101237B6101233B61FA68BB6801
S11305709A4202D07B68002B00D14DE049E0FB6930
S1130580BA68134018D1FB69FA68134014D13A6A67
S11305907B6A9A4210D8FB68BA6812681A603B6A90
S11305A0FA68D318FB603B6ABA68D318BB603B6A2D
S11305B07A6AD31A7B622CE07B69BA68134018D13B
S11305C07B69FA68134014D1BA697B6A9A4210D8DD
S11305D0FB68BA6812881A80BB69FA68D318FB6092
S11305E0BB69BA68D318BB60BB697A6AD31A7B62E9
S11305F00FE0FB68BA6812781A703B69FA68D3187E
S1130600FB603B69BA68D318BB603B697A6AD31A4A
S11306107B627B6A002BB2D1BD460AB080BDC04666
S113062090B583B000AF2D4B002B00D153E00023D5
S11306307B6032E029497A68131C5B009B189B009D
S1130640CB18586825497A68131C5B009B189B00DB
S11306505958224C7A68131C5B009B189B00E318C2
S113066008331B681A1CFFF76FFF1C497A68131CB8
S11306705B009B189B00CB18596818487A68131CB8
S11306805B009B189B00C31808331B68081C191CCB
S1130690FFF752FF7B6801337B6010497A68131CB3
S11306A05B009B189B005B58002BC3D10B497A68F5
S11306B0131C5B009B189B00CB185B68002BB9D103
S11306C006497A68131C5B009B189B00CB180833FF
S11306D01B68002BAED1BD4603B090BDE40D0000F5
S11306E080B588B000AF274A274BD31AFB61264B4D
S11306F0BB6104237B6103233B610223FB60012371
S1130700BB6001237B60FB69002B00D136E032E043
S11307103B69BA6913400FD17A69FB699A420BD8D5
S1130720BB6900221A607B69BA69D318BB617B6913
S1130730FA69D31AFB611EE0BB68BA6913400FD192
S1130740FA68FB699A420BD8BB6900221A80FB68DD
S1130750BA69D318BB61FB68FA69D31AFB610AE072
S1130760BB6900221A707B68BA69D318BB617B68C5
S1130770FA69D31AFB61FB69002BC9D1BD4608B0E5
S113078080BDC0467CF0FF1F00F0FF1F80B500AFA6
S1130790BD4680BD80B500AFBD4680BD80B582B08A
S11307A000AF0E4B7B60FFF7F1FF00F063F87B684E
S11307B0181C002805D0854681B00020C043009055
S11307C001B0FFF78DFFFFF72BFFFFF7E3FF044BAB
S11307D00020191CFFF7AAFEFEE7C04600300020E7
S11307E01CF0FF1F80B584B000AF7860104BFB6035
S11307F0FB687A681A600F4B0E4A526902210A4359
S11308005A610C4B0B4A126802210A431A600A4BC4
S1130810094A5168094A0A40802149000A435A603A
S1130820074BFA689A60FB68181CBD4604B080BD8B
S113083044F0FF1FC0F00F4000C00440FFF8FFFE6B
S113084048F0FF1F80B582B000AF7860024B0222EF
S1130850DA60BD4602B080BDC0F00FF880B500AFCD
S1130860FFF732FEBD4680BD80B500AFFFBEBD467A
S113087080BDC04680B500AF3A4A3B493B4BD1509E
S11308803B4A88235B010021D150394A394BC021AE
S11308908902D150364A3649374BCB58B0214901E9
S11308A01943354BD150324A3149334BCB5801218E
S11308B01943314BD150314B9B78DBB21A1C0823BE
S11308C0134007D02D4B2D4A9278D2B208210A4307
S11308D0D2B29A70264A274B0021D150244A244987
S11308E0274BC958274B1940254BD150204B204A40
S11308F01268C02109030A431A601D4A1C49204B8F
S1130900C958214B0B408021490419431C4BD15039
S11309101E4B06221A701D4B00225A701B4B1B4A99
S1130920D278D1B21F220A40D2B2DA70184B802298
S11309301A70164B00221A71144B00225A71C046C9
S1130940124B9B79DBB21A1C10231340F8D0C0461B
S11309500E4B9B79DBB21A1C0C231340F8D1BD4615
S113096080BDC04600E000E000000000080D00006B
S113097000700440441000003810000000D007400C
S113098004100000FFFFFEFFFFFFFFFC00400640D5
S11309900050064080B500AF2F4B2F4A11692F4AF3
S11309A00A40E021C9000A431A612D4B2C4A5279AE
S11309B0D2B21F218A43D2B25A71294B284A1279E2
S11309C0D2B207218A43D2B21A71264B254A127831
S11309D0D2B2D2B273218A43D2B250210A43D2B2E4
S11309E0D2B21A701F4B1F4A5278D2B2D2B26321CC
S11309F08A43D2B240210A43D2B2D2B25A70194BBE
S1130A00184A9278D2B219218A43D2B29A70164BFC
S1130A1000221A70104B104A116D104A0A40E0214E
S1130A20C9000A431A65114A1049C1239B00C958D9
S1130A300F4B1940C1239B00D150002000F09CF8BB
S1130A400020FFF7CFFE002000F0D0F8002000F0D7
S1130A500DF962B6BD4680BD00900440FFF8FFFE6C
S1130A6000F0074000D0074000E0074000E100E04C
S1130A70FFFF00FF80B582B000AF7860FFF728FD6C
S1130A80BD4602B080BDC04680B584B000AF78607A
S1130A90254B1B68002B36D1244BFB60FB687A681E
S1130AA05A60FB6801221A70214BFA681A60214AC5
S1130AB02049214BCB58012119431F4BD1501F4BC7
S1130AC080221A601D4B1E4A9A601C4B04225A60F5
S1130AD01C4A1C49C7239B00CB58FF218B43802110
S1130AE01943C7239B00D150164B164A1268802124
S1130AF049050A431A60114B41221A600A4BFA68ED
S1130B001A60FB680CE0084B1B68FB60FB687A68A2
S1130B105A60FB681B780133DAB2FB681A70FB6811
S1130B20181CBD4604B080BD48F0FF1F5CF0FF1FD9
S1130B3064F0FF1F007004403810000000000440FF
S1130B40FFFF000000E100E080B582B000AF084B79
S1130B501B687B60074B074A126880210A431A60AE
S1130B607B685B68181C00F02FF8BD4602B080BD9E
S1130B7064F0FF1F0000044080B584B000AF7860CB
S1130B800F4BFB60FB687A689A60FB6801221A715C
S1130B900C4BFA685A600020FFF776FF021CFB68D2
S1130BA01A60FB681B68002B04D1064B00225A60B4
S1130BB0002300E0FB68181CBD4604B080BDC0469D
S1130BC068F0FF1F48F0FF1F80B584B000AF786065
S1130BD0054B5B68FB60FB689B68181CFFF74AFFCA
S1130BE0BD4604B080BDC04648F0FF1F80B584B048
S1130BF000AF7860114BFB60FB687A681A60104B99
S1130C000F4A5269802109030A435A610C4B0C4A6A
S1130C101268802109030A431A600A4B094AD16CFD
S1130C20094A0A40802149000A43DA64074BFA68FA
S1130C30DA60FB68181CBD4604B080BD74F0FF1F69
S1130C4040F00F4000A00440FFF8FFFE48F0FF1FF3
S1130C5080B582B000AF7860034B80221203DA6063
S1130C60BD4602B080BDC04640F00FF880B584B0E8
S1130C7000AF7860114BFB60FB687A681A60104B18
S1130C800F4A52698021C9020A435A610C4B0C4A2B
S1130C9012688021C9020A431A600A4B094A916CFE
S1130CA0094A0A40802149000A439A64074BFA68BA
S1130CB01A61FB68181CBD4604B080BD78F0FF1FA4
S1130CC040F00F4000A00440FFF8FFFE48F0FF1F73
S1130CD080B582B000AF7860034B8022D202DA6024
S1130CE0BD4602B080BDC04640F00FF8C046C046C5
S1130CF0C04670470020C046C046C046C046C046F5
S1130D0001300928F7D9C0467047C04680B582B083
S1130D1000AF021CBB1D1A8006E0FFF7EBFFBB1DF2
S1130D20BA1D1288643A1A80BB1D1B88642BF4D840
S1130D3006E0FFF7DBFFBB1DBA1D12880A3A1A80D2
S1130D40BB1D1B880A2BF4D8BD4602B080BDC0462B
S1130D5080B582B000AF786007E00A4B181CFFF73B
S1130D60D5FF7B68084A9B187B607A68054B9A42DA
S1130D70F3D87B689BB2181CFFF7C8FFBD4602B0CE
S1130D8080BDC04660EA0000A015FFFF80B584B0B6
S1130D9000AF021CBB1D1A80094BFB6008E0FB6816
S1130DA0181CFFF7D5FFBB1D1A88BB1D013A1A801A
S1130DB0BB1D1B88002BF2D1BD4604B080BDC046CC
S1130DC0EB510000F8B5C046F8BC08BC9E4670471D
S10F0DD0F8B5C046F8BC08BC9E4670474D
S1070DDC8D0400007E
S1070DE05D040000AA
S1130DE4E40D000000F0FF1F0000000000000000FC
S10B0DF40000000000000000F3
S903079D58
